:100000000C9434000C94F3000C9446000C944600BD
:100010000C9446000C9446000C9446000C94460048
:100020000C9446000C9446000C9446000C94460038
:100030000C9446000C9446000C9446000C94460028
:100040000C9448000C9446000C9446000C94460016
:100050000C9446000C9446000C9446000C94460008
:100060000C9446000C94460011241FBECFEFD4E040
:10007000DEBFCDBF11E0A0E0B1E001C01D92A43110
:10008000B107E1F70E9467010C94BD020C940000D7
:100090001F920F920FB60F9211248F939F93AF93DD
:1000A000BF938091040190910501A0910601B09148
:1000B00007010196A11DB11D8093040190930501D4
:1000C000A0930601B0930701809108019091090166
:1000D000A0910A01B0910B010196A11DB11D809361
:1000E000080190930901A0930A01B0930B0180913C
:1000F0000C0190910D01A0910E01B0910F0101969C
:10010000A11DB11D80930C0190930D01A0930E01D0
:10011000B0930F018091100190911101A0911201F3
:10012000B09113010196A11DB11D80931001909310
:100130001101A0931201B093130116BCBF91AF91AE
:100140009F918F910F900FBE0F901F901895E82FE1
:10015000F894F0E0EE0FFF1FEE0FFF1FEC5FFE4F75
:1001600020813181428153817894B901CA01089577
:10017000E82FF894F0E0EE0FFF1FEE0FFF1FEC5F8B
:10018000FE4F10821182128213827894089583E0C8
:1001900084BD82E085BD16BCEEE6F0E08081816022
:1001A00080831092040110920501109206011092B2
:1001B0000701109208011092090110920A01109291
:1001C0000B0110920C0110920D0110920E01109271
:1001D0000F01109210011092110110921201109251
:1001E0001301789408951F920F920FB60F92112465
:1001F0008F939F93AF93BF934A9B20C0809104013C
:1002000090910501A0910601B09107018093000132
:1002100090930101A0930201B09303011092040195
:100220001092050110920601109207011092100120
:10023000109211011092120110921301BF91AF910F
:100240009F918F910F900FBE0F901F90189581E096
:10025000809369008DBB0895681710F4861B08957C
:10026000681B862F08950F931F938B019C014130CB
:1002700049F1423029F4369527951795079522C004
:10028000443041F462E036952795179507956A95B5
:10029000D1F718C0483041F453E0369527951795AB
:1002A00007955A95D1F70EC0403141F444E0369598
:1002B0002795179507954A95D1F704C00E94AA0281
:1002C0008B019C01B801C9011F910F9108952F92D4
:1002D0003F924F925F926F927F928F929F92AF92D6
:1002E000BF92CF92DF92EF92FF920F931F93DF9313
:1002F000CF930F92CDB7DEB70E94C7005298539AA2
:10030000519A84B18F6384B98AB1806C8AB987B1FC
:10031000837C87B981E0809369008DBBEE24FF2444
:100320008701222433242101AA24BB2465016624E9
:10033000772443011982349902C019820AC0898145
:10034000882319F0E1E0E98304C028982D98F1E0B2
:10035000F9834A9B02C05B9801C05B9AF894809134
:10036000100190911101A0911201B09113017894A4
:100370008E159F05A007B10778F480910001909138
:100380000101A0910201B09103010097A105B105FF
:1003900009F48AC04A9B88C0F8948091000190912A
:1003A0000101A0910201B09103010097A105B105DF
:1003B00011F58091100190911101A0911201B0915D
:1003C0001301E816F9060A071B0728F580911001AA
:1003D00090911101A0911201B09113018E199F0902
:1003E000A00BB10B8093100190931101A093120107
:1003F000B093130110C0E0900001F0900101009152
:10040000020110910301109200011092010110925B
:10041000020110920301109208011092090110923A
:100420000A0110920B0110920C0110920D01109212
:100430000E0110920F01789428982B9857016801AB
:10044000D694C794B794A794C601B50148E10E9419
:1004500033013B014C018CE0E816F1040105110564
:1004600058F0EAE0AE16B104C104D10428F4FAE071
:10047000AF2EB12CC12CD12CFCE02F16310441043D
:10048000510458F08AE0681671048104910428F43C
:10049000EAE06E2E712C812C912CC801B70148E145
:1004A0000E9433011B012C01F89480910801909166
:1004B0000901A0910A01B0910B0178948E159F0556
:1004C000A007B10758F0F8941092080110920901A2
:1004D00010920A0110920B0178942898F894809158
:1004E0000C0190910D01A0910E01B0910F01789433
:1004F00082159305A405B50558F0F89410920C01E7
:1005000010920D0110920E0110920F0178942D9807
:10051000F8948091080190910901A0910A01B0918D
:100520000B0178948A159B05AC05BD0508F0289A47
:10053000F89480910C0190910D01A0910E01B09161
:100540000F01789486159705A805B90508F4F3CE30
:100550002D9AF1CE1F932F93222710E2660F771F5B
:10056000881F991F221F10F0241710F0241B6160B0
:0E0570001A95A1F72F911F910895F894FFCFCF
:00000001FF
